:020000040800F2
:1000000070070020AD030008493200084B32000899
:100010004F32000853320008573200080000000039
:100020000000000000000000000000005B3200083B
:100030005D320008000000005F32000861320008F5
:10004000C7030008C7030008C7030008C703000868
:10005000C7030008C70300085F150008C7030008AE
:100060002D150008C7030008C7030008C7030008D0
:10007000C7030008C7030008C7030008C703000838
:10008000C7030008C7030008C7030008C703000828
:10009000C7030008C7030008C7030008C703000818
:1000A000C7030008C7030008C7030008C703000808
:1000B000C7030008B31200082F130008C703000885
:1000C000C7030008C7030008C7030008C7030008E8
:1000D000C7030008C7030008C7030008C7030008D8
:1000E000472D0008C7030008C7030008C70300081E
:1000F000C7030008C7030008C7030008C7030008B8
:10010000C7030008C7030008C7030008C7030008A7
:10011000C7030008C7030008C7030008C703000897
:10012000C7030008C7030008C7030008C703000887
:1001300000F002F800F03AF80AA090E8000C8244BF
:100140008344AAF10107DA4501D100F02FF8AFF29C
:10015000090EBAE80F0013F0010F18BFFB1A43F0A5
:10016000010318475445000074450000103A24BFAD
:1001700078C878C1FAD8520724BF30C830C144BF0C
:1001800004680C607047000000230024002500264E
:10019000103A28BF78C1FBD8520728BF30C148BFEA
:1001A0000B6070471FB51FBD10B510BD03F0F7F809
:1001B0001146FFF7F7FF03F071F803F015F903B4E8
:1001C000FFF7F2FF03BC03F019F900000CB50020A3
:1001D000019000906C48006840F480306A490860E3
:1001E00000BF6948006800F4003000900198401C8E
:1001F0000190009818B90198B0F5A06FF1D162484C
:10020000006800F4003010B10120009001E00020EF
:1002100000900098012843D15C48006840F010002D
:100220005A4908600846006820F003000860084644
:10023000006840F002000860534840685249486036
:100240000846406848600846406840F4806048605E
:100250000846406820F47C1048600846406840F436
:10026000E81048600846006840F08070086000BFF1
:100270004548006800F000700028F9D04248406806
:1002800020F00300404948600846406840F0020002
:10029000486000BF3C48406800F00C000828F9D1D5
:1002A0000CBD10B5FFF792FF10BD10B536480068C1
:1002B00040F001003449086008464068344908406D
:1002C0003149486008460068324908402E490860B4
:1002D0000846006820F4802008600846406820F442
:1002E000FE0048604FF41F008860FFF7DAFF4FF010
:1002F00000602949086010BD10B5002100200022CF
:10030000214B5B6803F00C0121B1042906D00829B8
:1003100028D107E0214B224C236027E01F4B204CC3
:10032000236023E0184B5B6803F47010164B5B6886
:1003300003F48032022303EB904022B9194B43436C
:10034000174C23600DE0104B5B6803F4003323B1BE
:10035000144B4343124C236003E0104B4343104CB7
:10036000236003E00D4B0E4C236000BF00BF064B23
:100370005B68C3F303130C4CE15C094B1B68CB4077
:10038000074C236010BD0000001002400020024016
:100390000000FFF8FFFFF6FE08ED00E000127A0013
:1003A0000000002000093D000400002009488047AB
:1003B00009480047FEE7FEE7FEE7FEE7FEE7FEE747
:1003C000FEE7FEE7FEE7FEE704480549054A064B5F
:1003D00070470000AB0200083101000870010020E6
:1003E000700700207003002070030020154880690A
:1003F00040F00800134988611348006820F4700039
:10040000114908600846006840F440100860202048
:100410000D49103108600B48806940F040000949DF
:1004200088610A48006820F470000849086008469E
:10043000006840F440100860202004491031086032
:100440007047000000100240000C014000180140FD
:1004500007210020234A5268234B1A40214B5A603F
:100460001A461268214B1A401E4B1A601A4612682F
:1004700042F480321A6000BF1A4A1268520C002AF5
:10048000FAD04FF48062174B5A601A46526842EA1B
:1004900081425A601A46526842F480325A60144AC5
:1004A000126842F03202124B1A600E4A126842F091
:1004B00080720C4B1A6000BF0A4A1268520E002A62
:1004C000FAD0084A526842F00202064B5A6005E030
:1004D000044A5268C2F3870000F003000228F7D1F3
:1004E00070470000001002400000FFF8FFFFF6FE1A
:1004F000002002402DE9F05F05460E46300103F072
:10050000C9F881466B4905FB01F003F0C3F8824648
:10051000494602F0DDFF0746384603F09BF884B2F7
:10052000204603F0B7F88346394603F093F9824634
:100530004FF0834103F0C2F8814603F08BF8804608
:100540004FF6FF7000EA041404EB080084B25A4826
:10055000806940F00400584988610846C06940F449
:100560000030C8615548006820F47F405349086056
:100570000846006840F40B4008604F48006940F4AA
:1005800000304D4908610846006920F400300861D8
:100590004B480480001D008842F208010843484986
:1005A000091D0880BDE8F09F2DE9F05F05460E4665
:1005B000300103F06FF881463E4905FB01F003F07E
:1005C00069F88246494602F083FF0746384603F041
:1005D00041F884B2204603F05DF88346394603F0C3
:1005E00039F982464FF0834103F068F8814603F001
:1005F00031F880464FF6FF7000EA041404EB08005F
:1006000084B22D48806940F004002B498861084677
:10061000806940F4804088612848001D006820F40B
:100620007F602649091D08600846006840F40B6099
:1006300008602148C06840F480401F49C8600846EF
:10064000C06820F48040C8601E480480001D0088F7
:1006500042F2080108431B49091D0880BDE8F09FCC
:1006600010B50246002020E0012A0BD10B5C154C8E
:10067000241F238000BF134B083B1B88C3F3C01308
:10068000002BF8D0022A0BD10B5C0D4C241F2380C9
:1006900000BF0B4B083B1B88C3F3C013002BF8D0E3
:1006A000FF2800D104E0431CD8B20B5C002BDBD147
:1006B00000BF10BD40420F00001002400008014082
:1006C0000844004008380140FE4908807047FD4951
:1006D000891C0880704700B50120FFF7F5FF112045
:1006E000FFF7F2FF3A20FFF7EFFF5520FFF7EFFF8C
:1006F0002920FFF7E9FF3620FFF7E6FFCA20FFF7C2
:10070000E6FF00BD00B5F048406940F48070EE4956
:1007100048610846806940F00800886108468069A1
:1007200040F0200088610846806940F04000886100
:100730000846806940F480708861E448006820F0D1
:100740000F00E24908600846006840F003000860B6
:10075000DF480068DF490840DD4908600846006856
:10076000DD490843DA490860081F006800F0FF20EF
:10077000091F08600846006840F0BB100860D748B1
:1007800000680020D54908600846006840F0BB308A
:100790000860081F006820F07040091F08600846C4
:1007A000006840F030400860CD48406820F4702078
:1007B000CB4948600846406840F43020486008460D
:1007C000006820F00F0008600846006840F00B0049
:1007D000086000204FF020418861C861C14908606D
:1007E0004FF02040806940F480504FF020418861F4
:1007F0000846806940F4804088610846806940F07E
:10080000100088610846C069C8610846C06940F0A8
:100810000100C8610846C06940F47060C861B14811
:100820000068C1F81C01AF480068C1F81C01084607
:10083000D0F81C0140F44070C1F81C0108468069E2
:1008400040F001008861FFF746FFA04810300068C3
:1008500040F001009D491031086000BD10B503460D
:100860000C462A20FFF730FF1812FFF730FFD8B2EE
:10087000FFF72DFF0120FFF72AFF3F20FFF727FF9B
:100880002B20FFF721FF2012FFF721FFE0B2FFF737
:100890001EFF0120FFF71BFFDF20FFF718FF2C20B2
:1008A000FFF712FF1046FFF712FF10BDF0B5074625
:1008B0000C46059D00262A20FFF706FF2012FFF7B1
:1008C00006FFE0B2FFF703FF1119491EC1F30F2025
:1008D000FFF7FDFE1119491EC8B2FFF7F8FE2B20E5
:1008E000FFF7F2FE1812FFF7F2FED8B2FFF7EFFEA5
:1008F000E918491EC1F30F20FFF7E9FEE918491E68
:10090000C8B2FFF7E4FE2C20FFF7DEFE00BF03E0D5
:100910003846FFF7DCFE761C02FB05F0B042F7D844
:10092000F0BD0FB583B00698002853D10A2000907F
:100930000598823080B2029004980A3080B201900B
:1009400037220146DDE90230FFF7B0FF3720009083
:1009500005984B3080B202900498413080B20190EB
:100960000A220146DDE90230FFF7A0FF37200090A0
:1009700005980A3080B202900498413080B201900C
:100980000A220146DDE90230FFF790FF0A200090BD
:1009900004980A3080B2029037220146059B0398E2
:1009A000FFF784FF3720009005980A3080B2034695
:1009B0000A220290DDE90301FFF778FF372000905B
:1009C00005984B3080B203460A220290DDE903010C
:1009D000FFF76CFF069801281FD13720009005987B
:1009E0000A3080B202900498413080B201900A220D
:1009F0000146DDE90230FFF759FF372000900598E6
:100A00004B3080B202900498413080B201900A22AB
:100A10000146DDE90230FFF749FF0698022847D179
:100A20000A2000900598823080B2029004980A3023
:100A300080B2019037220146DDE90230FFF736FF30
:100A40003720009005984B3080B2029004984130D6
:100A500080B201900A220146DDE90230FFF726FF4D
:100A60000A20009004980A3080B202903722014692
:100A7000059B0398FFF71AFF3720009005980A306E
:100A800080B203460A220290DDE90301FFF70EFF60
:100A90000A2000900598413080B2029004980A30F4
:100AA00080B2019037220146DDE90230FFF7FEFEF9
:100AB000069803285ED10A2000900598823080B203
:100AC000029011E0FE07006C00100240000C014093
:100AD0000414014000F0FF00BB0B00BB04180140F0
:100AE000002001401C0100A004980A3080B201904F
:100AF00037220146DDE90230FFF7D8FE37200090AB
:100B000005984B3080B202900498413080B2019039
:100B10000A220146DDE90230FFF7C8FE37200090C7
:100B200005980A3080B202900498413080B201905A
:100B30000A220146DDE90230FFF7B8FE0A200090E4
:100B400004980A3080B2029037220146059B039830
:100B5000FFF7ACFE0A2000900598413080B2029069
:100B600004980A3080B2019037220146DDE9023054
:100B7000FFF79CFE069804283BD13720009005988B
:100B80004B3080B202900498413080B201900A222A
:100B90000146DDE90230FFF789FE37200090059815
:100BA0000A3080B202900498413080B201900A224B
:100BB0000146DDE90230FFF779FE37200090059805
:100BC0004B3080B203460A220290DDE90301FFF7B1
:100BD0006DFE0A2000900598413080B20290049882
:100BE0000A3080B2019037220146DDE90230FFF77A
:100BF0005DFE0698052847D10A20009005988230AE
:100C000080B2029004980A3080B2019037220146E7
:100C1000DDE90230FFF74AFE3720009005980A30E0
:100C200080B202900498413080B201900A220146BD
:100C3000DDE90230FFF73AFE0A20009004980A30FE
:100C400080B2029037220146059B0398FFF72EFEE3
:100C50003720009005984B3080B203460A2202905C
:100C6000DDE90301FFF722FE0A20009005984130DC
:100C700080B2029004980A3080B201903722014677
:100C8000DDE90230FFF712FE0698062853D10A204C
:100C900000900598823080B2029004980A3080B2A9
:100CA000019037220146DDE90230FFF7FFFD3720D2
:100CB000009005980A3080B202900498413080B2CA
:100CC00001900A220146DDE90230FFF7EFFD0A201C
:100CD000009004980A3080B2029037220146059BAA
:100CE0000398FFF7E3FD3720009005980A3080B2A3
:100CF00003460A220290DDE90301FFF7D7FD372002
:100D0000009005984B3080B203460A220290DDE93C
:100D10000301FFF7CBFD0A2000900598413080B217
:100D2000029004980A3080B2019037220146DDE932
:100D30000230FFF7BBFD069807282FD10A2000904C
:100D40000598823080B2029004980A3080B20190F7
:100D500037220146DDE90230FFF7A8FD3720009079
:100D600005984B3080B202900498413080B20190D7
:100D70000A220146DDE90230FFF798FD3720009096
:100D800005980A3080B202900498413080B20190F8
:100D90000A220146DDE90230FFF788FD069808289F
:100DA00063D10A2000900598823080B202900498A6
:100DB0000A3080B2019037220146DDE90230FFF7A8
:100DC00075FD3720009005984B3080B20290049852
:100DD000413080B201900A220146DDE90230FFF77E
:100DE00065FD3720009005980A3080B20290049883
:100DF000413080B201900A220146DDE90230FFF75E
:100E000055FD0A20009004980A3080B202903722E3
:100E10000146059B0398FFF749FD37200090059890
:100E20000A3080B203460A220290DDE90301FFF78F
:100E30003DFD3720009005984B3080B203460A22D2
:100E40000290DDE90301FFF731FD0A2000900598CB
:100E5000413080B2029004980A3080B2019037226B
:100E60000146DDE90230FFF721FD0698092857D138
:100E70000A2000900598823080B2029004980A30CF
:100E800080B2019037220146DDE90230FFF70EFD06
:100E90003720009005984B3080B202900498413082
:100EA00080B201900A220146DDE90230FFF7FEFC24
:100EB0003720009005980A3080B2029004984130A3
:100EC00080B201900A220146DDE90230FFF7EEFC14
:100ED0000A20009004980A3080B20290372201461E
:100EE000059B0398FFF7E2FC3720009005984B30F4
:100EF00080B203460A220290DDE90301FFF7D6FC27
:100F00000A2000900598413080B2029004980A307F
:100F100080B2019037220146DDE90230FFF7C6FCBE
:100F200007B000BD2DE9F04F04460D4616469A461F
:100F3000DDF8249010224FF0080B202E01DB7F2ECD
:100F400001DDBDE8F08FA6F12000C6B22A20FFF730
:100F5000BBFB2012FFF7BBFBE0B2FFF7B8FB0BEBCC
:100F60000401491EC1F30F20FFF7B1FB0BEB040195
:100F7000491EC8B2FFF7ABFB2B20FFF7A5FB2812D9
:100F8000FFF7A5FBE8B2FFF7A2FB5119491EC1F319
:100F90000F20FFF79CFB5119491EC8B2FFF797FBC2
:100FA0002C20FFF791FB002327E04FF000081DE005
:100FB000002715E07A4800EB0610012101EB4701FC
:100FC000C91A405C40FA08F000F0010018B1504620
:100FD000FFF77DFB02E04846FFF779FB781CC7B2BC
:100FE0005F45E7DB08F1010000F0FF0802EBD2717A
:100FF000B8EB610FDCDB581CC3B2D11702EB5171A7
:10100000B3EBE10FD1DB00BF9BE72DE9F04F0446C6
:101010000D4690469A46DDF82490102293462A20E9
:10102000FFF752FB2012FFF752FBE0B2FFF74FFB36
:101030000BEB0401491EC1F30F20FFF748FB0BEB3C
:101040000401491EC8B2FFF742FB2B20FFF73CFB0F
:101050002812FFF73CFBE8B2FFF739FB5119491E94
:10106000C1F30F20FFF733FB5119491EC8B2FFF738
:101070002EFB2C20FFF728FB002723E000261AE098
:10108000002314E0474800EB4810012101EB430125
:10109000C91B405C304100F0010018B15046FFF719
:1010A00016FB02E04846FFF712FB581CC3B25B4533
:1010B000E8DB701CC6B202EBD271B6EB610FDFDB6E
:1010C000781CC7B2D11702EB5171B7EBE10FD5DB3A
:1010D000BDE8F08F2DE9F04F04460D4690469A4644
:1010E000DDF82490102293462A20FFF7EDFA201213
:1010F000FFF7EDFAE0B2FFF7EAFA0BEB0401491E45
:10110000C1F30F20FFF7E3FA0BEB0401491EC8B24D
:10111000FFF7DDFA2B20FFF7D7FA2812FFF7D7FAEF
:10112000E8B2FFF7D4FA5119491EC1F30F20FFF7B7
:10113000CEFA5119491EC8B2FFF7C9FA2C20FFF7A1
:10114000C3FA002723E000261AE0002314E0164823
:1011500000EB4810012101EB4301C91B405C304109
:1011600000F0010018B15046FFF7B1FA02E048461E
:10117000FFF7ADFA581CC3B25B45E8DB701CC6B282
:1011800002EBD271B6EB610FDFDB781CC7B2D1176F
:1011900002EB5171B7EBE10FD5DBBDE8F08F00003A
:1011A00052390008423F000882400008002100E058
:1011B000491C8142FCD3704700204FF0E0210861B8
:1011C000654848610846006940F0030008617047BF
:1011D000624AD26942F00202604BDA61604A1080D2
:1011E000121F11805E4A203A128842F001025C4BC5
:1011F000203B1A805A4A2C3A128842F00102584B7E
:101200002C3B1A804523574A1370574A126842F004
:1012100000524FF0E023C3F8002170474F4A926913
:1012200042F008024D4B9A61504A126822F4700253
:101230004E4B1A601A46126842F430021A60474A4E
:10124000926942F00102454B9A61494A526822F480
:101250004062474B5A601A46526842F400625A6034
:101260003E4AD26942F002023C4BDA613C4A1080AD
:10127000121F11803A4A143A128842F4E042384B65
:10128000143B1A801A46128842F400621A80344ACB
:101290000C3A128842F01002314B0C3B1A8080222B
:1012A0002F4B2C3B1A801A46128842F001021A80FA
:1012B00070472B481C38008800F0010038B12B48DB
:1012C0000C30006880F0200028490C310860244868
:1012D0001C38008820F0010021491C390880704723
:1012E0001E4AD26942F004021C4BDA61214A108086
:1012F000121F11801F4A203A128842F001021D4B32
:10130000203B1A801B4A2C3A128842F00102194BEA
:101310002C3B1A804523134A521C1370124A126840
:1013200042F080424FF0E023C3F80021704711489B
:101330001C38008800F0010028B10F48006880F0D8
:1013400020000D4908600B481C38008820F001007F
:1013500008491C39088070478F5F01000010024067
:101360002C0400401DE400E000E100E0000C01401E
:10137000000001402C0800400C180140014601F01B
:1013800007021202874B18684FF6FF031840864B7E
:1013900018431043834B186070478448806940F0BD
:1013A0004000824988618248006820F4706080496A
:1013B00008600846006840F4006008607C480C3013
:1013C000006840F004007A490C3108607748806971
:1013D00040F00100754988617648806820F47060AB
:1013E000744988600846806840F48060886072486C
:1013F000006840F00400704908606F480C300068D5
:1014000040F004006C490C3108606E216B4801709B
:101410006B48006840F480704FF0E021C1F8000193
:1014200070476248806940F01000604988616548F3
:10143000406820F47F40634948600846406840F4B3
:1014400008404860C8140861401008615748806926
:1014500040F00100554988615648006920F4704108
:1014600054480161006940F40051524801615248FA
:10147000006840F40060504908604F480C30006834
:1014800040F400604C490C31086065214B48203025
:1014900001704B48001D006840F480704FF0E0215F
:1014A000C1F8040170474148806940F004003F4999
:1014B00088614548006820F00F00434908600846ED
:1014C000006840F0080008603F480C30006840F0B9
:1014D00010003D490C3108603448806940F001003B
:1014E000324988613348806820F00F0031498860B4
:1014F0000846806888603048006840F001002E4946
:1015000008602D480C30006840F001002A490C3179
:10151000086045212948801E01702948006840F074
:1015200040004FF0E021C1F80001704710B50024E1
:101530000EE02020254908602548FFF737FE2020CF
:101540002249091F08602248FFF730FE601CC4B220
:101550000A2CEEDB042018491431086010BD10B5C8
:10156000002417E012481430006840F020001049B1
:10157000143108601648FFF719FE0D481030006856
:1015800040F020000A49103108601148FFF70EFEB4
:10159000601CC4B20A2CE5DB012007491431086045
:1015A00010BD00000CED00E00000FA050010024044
:1015B00000180140000001400004014008E400E080
:1015C00000E100E00010014000080140140C01405F
:1015D00040420F0008B54FF47A70002302461946C6
:1015E00000901846FFF762F900204FF6FF7349227A
:1015F0004FF48C7100905020FFF794FC00204FF6C0
:10160000FF7345224FF48C7100905A20FFF78AFC3B
:1016100000204FF6FF7352224FF48C71009064202B
:10162000FFF780FC00204FF6FF7347224FF48C71C8
:1016300000906E20FFF776FC00204FF6FF733322F8
:101640004FF48C7100907820FFF76CFC00204FF66F
:10165000FF7338224FF48C7100908220FFF762FCF8
:1016600000204FF6FF7331224FF48C7100908C20D4
:10167000FFF758FC00204FF6FF7330224FF48C71B7
:1016800000909620FFF74EFC00204FF6FF734D228E
:10169000FA2100903C20FFF745FC00204FF6FF7335
:1016A0006922FA2100904620FFF73CFC00204FF60B
:1016B000FF736E22FA2100905020FFF733FC0020C8
:1016C0004FF6FF736922FA2100905A20FFF72AFC97
:1016D00000204FF6FF732D22FA2100906420FFF7BF
:1016E00021FC00204FF6FF735022FA2100906E205B
:1016F000FFF718FC00204FF6FF737222FA210090CA
:101700007820FFF70FFC00204FF6FF736F22FA21BD
:1017100000908220FFF706FC00204FF6FF736A223C
:10172000FA2100908C20FFF7FDFB00204FF6FF739D
:101730006522FA2100909620FFF7F4FB00204FF677
:10174000FF736322FA210090A020FFF7EBFB00203B
:101750004FF6FF737422FA210090AA20FFF7E2FBF4
:101760000520CD230F22192100904FF6FF70FFF7BF
:101770009DF81420B9230522014600904FF6FF7012
:10178000FFF794F80520B4230F22192100904FF69B
:10179000FF70FFF78BF80520B4230A223221009056
:1017A0004FF6FF70FFF782F81420B92305222D2190
:1017B00000904FF6FF70FFF779F80520CD230A223D
:1017C000322100904FF6FF70FFF770F81420B92314
:1017D00005223C2100904FF6FF70FFF767F81920B3
:1017E000B4230522462100904FF6FF70FFF75EF804
:1017F0000520CD230A224B2100904FF6FF70FFF702
:1018000055F81920B4230522552100904FF6FF709A
:10181000FFF74CF81920B42305225F2100904FF602
:10182000FF70FFF743F80520CD230A2264210090C2
:101830004FF6FF70FFF73AF81920B42305226E2106
:1018400000904FF6FF70FFF731F81420B9230522FE
:10185000782100904FF6FF70FFF728F80520B42399
:101860000F227D2100904FF6FF70FFF71FF8052033
:10187000C1230F227D2100904FF6FF70FFF716F86D
:101880000520CD230F227D2100904FF6FF70FFF73A
:101890000DF81420B9230522912100904FF6FF7016
:1018A000FFF704F80520B4230F22962100904FF68D
:1018B000FF70FEF7FBFF0520CD230F22962100903D
:1018C0004FF6FF70FEF7F2FF0520CD231422AA2168
:1018D00000904FF6FF70FEF7E9FF1920B4230522B0
:1018E000B12100904FF6FF70FEF7E0FF0A2087233A
:1018F00005227D2100904FF6FF70FEF7D7FF0A20EA
:10190000962305227D2100904FF6FF70FEF7CEFF53
:10191000052091230F22822100904FF6FF70FEF7E1
:10192000C5FF0520A0230F22822100904FF6FF70F3
:10193000FEF7BCFF14208C230522962100904FF661
:10194000FF70FEF7B3FF14208C230522A521009021
:101950004FF6FF70FEF7AAFF052087230A229B217E
:1019600000904FF6FF70FEF7A1FF0520A0230A228A
:101970009B2100904FF6FF70FEF798FF19208C23F3
:101980000522AF2100904FF6FF70FEF78FFF192060
:101990008C230522BE2100904FF6FF70FEF786FFD4
:1019A000052087230A22B42100904FF6FF70FEF72E
:1019B0007DFF192087230522C82100904FF6FF7074
:1019C000FEF774FF052091230A22CD2100904FF6E7
:1019D000FF70FEF76BFF0520A0230A22CD210090A7
:1019E0004FF6FF70FEF762FF0A2096230522D721EB
:1019F00000904FF6FF70FEF759FF05208C2302463A
:101A0000D22100904FF6FF70FEF750FF052087238C
:101A10000246D72100904FF6FF70FEF747FF0020E7
:101A20004FF6FF735222462100902820FFF77AFAE2
:101A300000204FF6FF734522462100903020FFF72B
:101A400071FA00204FF6FF734122462100903820A2
:101A5000FFF768FA00204FF6FF73442246210090FA
:101A60004020FFF75FFA00204FF6FF73592246210E
:101A700000904820FFF756FA00204FF6FF734922E6
:101A8000462100905820FFF74DFA00204FF6FF73D3
:101A90004E22462100906020FFF744FA00204FF6C6
:101AA000FF733522462100907520FFF73BFA002096
:101AB0004FF6FF735322462100908820FFF732FA39
:101AC00000204FF6FF734522462100909020FFF73B
:101AD00029FA00204FF6FF734322462100909820F8
:101AE000FFF720FA00204FF6FF734F2246210090A7
:101AF000A020FFF717FA00204FF6FF734E22462171
:101B00000090A820FFF70EFA00204FF6FF73442242
:101B100046210090B020FFF705FA00204FF6FF7332
:101B20004222142100900846FFF7FCF900204FF6EE
:101B3000FF733022142100901C20FFF7F3F90020DE
:101B40004FF6FF733322142100902420FFF7EAF9A7
:101B500000204FF6FF7331220A2100903C20FFF74E
:101B6000E1F900204FF6FF7331220A210090442052
:101B7000FFF7D8F900204FF6FF7335220A210090B5
:101B80004C20FFF7CFF900204FF6FF7335220A21D2
:101B900000905420FFF7C6F900204FF6FF73312262
:101BA0000A2100905C20FFF7BDF900204FF6FF737B
:101BB00034220A2100906420FFF7B4F900204FF688
:101BC000FF7331220A2100906C20FFF7ABF900204F
:101BD0004FF6FF7339220A2100907420FFF7A2F913
:101BE00000204FF6FF7332220A2100907C20FFF77D
:101BF00099F900204FF6FF7338220A2100908420C3
:101C0000FFF790F900204FF6FF7302460A2100907B
:101C10008E20FFF7FAF900204FF6FF7301220A2108
:101C200000909E20FFF7F1F900204FF6FF7302228B
:101C30000A210090AE20FFF7E8F900204FF6FF736D
:101C400031221E2100903C20FFF76CF900204FF656
:101C5000FF7331221E2100904420FFF763F900201A
:101C60004FF6FF7335221E2100904C20FFF75AF9E2
:101C700000204FF6FF7335221E2100905420FFF7FD
:101C800051F900204FF6FF7331221E2100905C2095
:101C9000FFF748F900204FF6FF7334221E21009011
:101CA0006420FFF73FF900204FF6FF7333221E2117
:101CB00000906C20FFF736F900204FF6FF733022BA
:101CC0001E2100907420FFF72DF900204FF6FF73BE
:101CD00037221E2100907C20FFF724F900204FF6C8
:101CE000FF7336221E2100908420FFF71BF900208D
:101CF0004FF6FF7303221E2100908E20FFF785F917
:101D000000204FF6FF7304221E2100909E20FFF753
:101D10007CF900204FF6FF7305221E210090AE20B3
:101D2000FFF773F908BD000010B50022FE4B1A60E2
:101D30000122FE4B1A600022FD4B1A6000200DE0CC
:101D4000002108E00022C0EBC003FA4C04EB83033F
:101D500043F82120491C0729F4DB401C0628EFDB4F
:101D6000002004E00022F44B43F82020401C062809
:101D7000F8DD10BDF8B505460C466000801CC0EBD0
:101D80000010C01FC6B2EC4810F82400401CC0EB85
:101D900000101430E84911F82410C1EB0111084477
:101DA0000838C7B2012D1FD10120E34951F8241092
:101DB000C1EBC101DF4A02EB810141F824000020A0
:101DC0004FF4FC630246394600903046FFF782F933
:101DD000D94850F82400401CD74941F82400D24883
:101DE0000068401CD0490860022D1FD10220D24952
:101DF00051F82410C1EBC101CE4A02EB810141F838
:101E0000240000204FF478430246394600903046C3
:101E1000FFF760F9C84850F82400401CC64941F853
:101E20002400C1480068401CBF490860F8BDBE4896
:101E300000682A2801D1002070470120FCE710B576
:101E4000034600222DE0002128E0C1EBC100B94C7F
:101E500004EB800050F8220098421ED1C1EBC10073
:101E600004EB8004501C54F82000984215D1C1EBBB
:101E7000C100B04C04EB8004901C54F82000984240
:101E80000BD1C1EBC100AB4C04EB8004D01C54F867
:101E90002000984201D1012010BD491C0529D4DD44
:101EA000521C032ACFDD00212BE0002226E0C1EBEB
:101EB000C100A04C04EB800050F8220098421CD1D5
:101EC000481CC0EBC00004EB800050F82200984290
:101ED00013D1881CC0EBC00004EB800050F8220036
:101EE00098420AD1C81CC0EBC00004EB800050F837
:101EF0002200984201D10120CEE7521C062AD6DDED
:101F0000491C0229D1DD032130E000222BE0C1EB86
:101F1000C100884C04EB800050F82200984221D187
:101F2000481EC0EBC00004EB8004501C54F8200095
:101F3000984217D1881EC0EBC0007E4C04EB800491
:101F4000901C54F8200098420CD1C81EC0EBC00071
:101F5000784C04EB8004D01C54F82000984201D146
:101F6000012099E7521C032AD1DD491C0529CCDD4B
:101F7000032130E003222BE0C1EBC1006D4C04EBE8
:101F8000800050F82200984221D1481EC0EBC000CA
:101F900004EB8004501E54F82000984217D1881E8C
:101FA000C0EBC000634C04EB8004901E54F820008A
:101FB00098420CD1C81EC0EBC0005E4C04EB8004FC
:101FC000D01E54F82000984201D1012064E7521C31
:101FD000062AD1DD491C0529CCDD00205CE75348E9
:101FE000006801280CD1202054490860544800683A
:101FF00040F020005249086002204C4908600EE081
:1020000020204E49091F08604D48001D006840F01F
:1020100020004B49091D08600120444908607047B1
:1020200038B50446424800784000801CC0EB0010E0
:10203000C01FC5B2012C43D100203D4908601020CB
:10204000FA230246172100900020FEF72FFC1020F3
:10205000FA230246352100900020FEF727FC1020CD
:10206000FA230246532100900020FEF71FFC1020A7
:10207000FA230246712100900020FEF717FC102081
:10208000FA2302468F2100900020FEF70FFC10205B
:10209000FA230246AD2100900020FEF707FC102035
:1020A000FA230246CB2100900020FEF7FFFB002020
:1020B0004FF6FF730122FA2100902846FFF70AF835
:1020C000022C52D101201A4908601020FA2302463E
:1020D000172100900020FEF7E9FB1020FA230246AA
:1020E000352100900020FEF7E1FB1020FA23024684
:1020F000532100900020FEF7D9FB1020FA2302465E
:10210000712100900020FEF7D1FB1020FA23024637
:102110008F2100900020FEF7C9FB1020FA23024611
:10212000AD21009000200DE01400002018000020D8
:102130001C0000203C000020E4000020140C0140A2
:1021400010180140FEF7B2FB1020FA230246CB2103
:1021500000900020FEF7AAFB00204FF6FF7301223B
:10216000FA2100902846FEF7B5FF032C43D1022048
:10217000FE4908601020FA23024617210090002033
:10218000FEF794FB1020FA23024635210090002030
:10219000FEF78CFB1020FA2302465321009000200A
:1021A000FEF784FB1020FA230246712100900020E4
:1021B000FEF77CFB1020FA2302468F2100900020BE
:1021C000FEF774FB1020FA230246AD210090002098
:1021D000FEF76CFB1020FA230246CB210090002072
:1021E000FEF764FB00204FF6FF730122FA210090F6
:1021F0002846FEF76FFF042C43D10320DB4908601B
:102200001020FA230246172100900020FEF74EFB13
:102210001020FA230246352100900020FEF746FBED
:102220001020FA230246532100900020FEF73EFBC7
:102230001020FA230246712100900020FEF736FBA1
:102240001020FA2302468F2100900020FEF72EFB7B
:102250001020FA230246AD2100900020FEF726FB55
:102260001020FA230246CB2100900020FEF71EFB2F
:1022700000204FF6FF730122FA2100902846FEF756
:1022800029FF052C43D10420B84908601020FA2307
:102290000246172100900020FEF708FB1020FA23C9
:1022A0000246352100900020FEF700FB1020FA23A3
:1022B0000246532100900020FEF7F8FA1020FA237E
:1022C0000246712100900020FEF7F0FA1020FA2358
:1022D00002468F2100900020FEF7E8FA1020FA2332
:1022E0000246AD2100900020FEF7E0FA1020FA230C
:1022F0000246CB2100900020FEF7D8FA00204FF6CE
:10230000FF730122FA2100902846FEF7E3FE062C17
:1023100043D10520954908601020FA230246172171
:1023200000900020FEF7C2FA1020FA230246352161
:1023300000900020FEF7BAFA1020FA23024653213B
:1023400000900020FEF7B2FA1020FA230246712115
:1023500000900020FEF7AAFA1020FA2302468F21EF
:1023600000900020FEF7A2FA1020FA230246AD21C9
:1023700000900020FEF79AFA1020FA230246CB21A3
:1023800000900020FEF792FA00204FF6FF73012222
:10239000FA2100902846FEF79DFE072C43D1062027
:1023A000724908601020FA2302461721009000208D
:1023B000FEF77CFA1020FA23024635210090002017
:1023C000FEF774FA1020FA230246532100900020F1
:1023D000FEF76CFA1020FA230246712100900020CB
:1023E000FEF764FA1020FA2302468F2100900020A5
:1023F000FEF75CFA1020FA230246AD21009000207F
:10240000FEF754FA1020FA230246CB210090002058
:10241000FEF74CFA00204FF6FF730122FA210090DC
:102420002846FEF757FE38BD10B586B004464FF477
:102430007A7000230246194600901846FEF736FAD5
:10244000022C7DD14AA090E80E00C068CDE903239C
:102450000291059002A90120FEF702F93C20BE235B
:102460000522412100904FF6FF70FEF71FFA05206C
:10247000DC230246462100904FF6FF70FEF716FA65
:102480000520F5230246462100904FF6FF70FEF727
:102490000DFA1E20DC2305224B2100904FF6FF7021
:1024A000FEF704FA0520BE230F22552100904FF6B7
:1024B000FF70FEF7FBF93720C3230522552100905A
:1024C0004FF6FF70FEF7F2F93220BE230522692194
:1024D00000904FF6FF70FEF7E9F93220BE23052287
:1024E000732100904FF6FF70FEF7E0F90A20D22327
:1024F00005226E2100904FF6FF70FEF7D7F91420E9
:10250000E62305226E2100904FF6FF70FEF7CEF90C
:102510001E20DC2305227D2100904FF6FF70FEF780
:10252000C5F92820BE230522822100904FF6FF70B6
:10253000FEF7BCF91E20DC2305228721009000E075
:10254000E6E04FF6FF70FEF7B1F93C20BE2305220E
:10255000912100904FF6FF70FEF7A8F90A20BE23E4
:102560000246962100904FF6FF7009E01C00002003
:10257000506C6179657220312077696E730A0000B2
:10258000FEF794F90A20D7230246962100904FF6D1
:10259000FF70FEF78BF90A20F02302469621009087
:1025A0004FF6FF70FEF782F93C20BE230522A521DD
:1025B00000904FF6FF70FEF779F90A20F02305220C
:1025C000AA2100904FF6FF70FEF770F91420D22375
:1025D0000522AA2100904FF6FF70FEF767F91E2032
:1025E000DC230522AF2100904FF6FF70FEF75EF965
:1025F0000A20C8230522AD2100904FF6FF70FEF798
:1026000055F90A20BE230522B22100904FF6FF7033
:10261000FEF74CF90A20A0230522692100904FF60D
:10262000FF70FEF743F90A20AA2305226E210090CD
:102630004FF6FF70FEF73AF90A2078231922692134
:1026400000904FF6FF70FEF731F932208223052209
:10265000732100904FF6FF70FEF728F932203C23DB
:102660000522552100904FF6FF70FEF71FF932202A
:102670003C2305225F2100904FF6FF70FEF716F90C
:1026800032203C230522692100904FF6FF70FEF7AF
:102690000DF90A20322305225A2100904FF6FF70CF
:1026A000FEF704F90A2032230522642100904FF638
:1026B000FF70FEF7FBF83C203223052273210090C7
:1026C0004FF6FF70FEF7F2F83220034605227D2117
:1026D00000904FF6FF70FEF7E9F83220034605221E
:1026E0008C2100904FF6FF70FEF7E0F80A2064237B
:1026F0000246822100904FF6FF70FEF7D7F80020C7
:10270000FE49087000BFFD480078C928FBDB32E2B3
:10271000012C7DD1FAA3D3E90012D3E90203CDE95C
:102720000403CDE9021202A90120FDF799FF3C2024
:10273000BE230522412100904FF6FF70FEF7B6F848
:102740000520DC230246462100904FF6FF70FEF77D
:10275000ADF80520F5230246462100904FF6FF70A4
:10276000FEF7A4F81E20DC2305224B2100904FF633
:10277000FF70FEF79BF80520BE230F225521009025
:102780004FF6FF70FEF792F83720C323052255213C
:1027900000904FF6FF70FEF789F83220BE23052225
:1027A000692100904FF6FF70FEF780F83220BE23BB
:1027B0000522732100904FF6FF70FEF777F80A208C
:1027C000D22305226E2100904FF6FF70FEF76EF8BF
:1027D0001420E62305226E2100904FF6FF70FEF7CD
:1027E00065F81E20DC2305227D2100904FF6FF7046
:1027F000FEF75CF82820BE230522822100904FF6C8
:10280000FF70FEF753F81E20DC230522872100E02D
:10281000E5E000904FF6FF70FEF748F83C20BE233D
:102820000522912100904FF6FF70FEF73FF80A2035
:10283000BE230246962100904FF6FF70FEF736F851
:102840000A20D7230246962100904FF6FF70FEF72C
:102850002DF80A20F0230246962100904FF6FF70D3
:10286000FEF724F83C20BE230522A52100904FF658
:10287000FF70FEF71BF80A20F0230522AA21009022
:102880004FF6FF70FEF712F81420D2230522AA217A
:1028900000904FF6FF70FEF709F81E20DC2305229A
:1028A000AF2100904FF6FF70FEF700F80A20C82312
:1028B0000522AD2100904FF6FF70FDF7F7FF0A20CB
:1028C000BE230522B22100904FF6FF70FDF7EEFF08
:1028D000052082230F226E2100904FF6FF70FDF736
:1028E000E5FF142082230522692100904FF6FF7036
:1028F000FDF7DCFF052096230F22692100904FF69B
:10290000FF70FDF7D3FF1420962305227821009055
:102910004FF6FF70FDF7CAFF0520AA231422692194
:1029200000904FF6FF70FDF7C1FF32203C230522D7
:10293000552100904FF6FF70FDF7B8FF32203C2381
:1029400005225F2100904FF6FF70FDF7AFFF3220A8
:102950003C230522692100904FF6FF70FDF7A6FF8A
:102960000A20322305225A2100904FF6FF70FDF70E
:102970009DFF0A2032230522642100904FF6FF704C
:10298000FDF794FF3C2032230522732100904FF67F
:10299000FF70FDF78BFF3220034605227D2100905A
:1029A0004FF6FF70FDF782FF3220034605228C218F
:1029B00000904FF6FF70FDF779FF0A20642302466E
:1029C000822100904FF6FF70FDF770FF00204B4909
:1029D000087000BF49480078C928FBDBCBE0032C16
:1029E000FCD14BA103C9CDE9040104A90120FDF7E5
:1029F00037FE142096231E22114600904FF6FF70DA
:102A0000FDF754FF1420C8231E22114600904FF6F4
:102A1000FF70FDF74BFF1E20AA230A2201460090FB
:102A20004FF6FF70FDF742FF3220A0230A223C211F
:102A300000904FF6FF70FDF739FF1E2096230A2203
:102A4000502100904FF6FF70FDF730FF0A20AA23B7
:102A500002465A2100904FF6FF70FDF727FF0A202B
:102A6000A0230246642100904FF6FF70FDF71EFF81
:102A70000A20962302466E2100904FF6FF70FDF764
:102A800015FF2820B4230246502100904FF6FF7016
:102A9000FDF70CFF1420BE2302465A2100900020AF
:102AA000FDF704FF3C2096230A22822100904FF676
:102AB000FF70FDF7FBFE3C2096230A22A021009028
:102AC0004FF6FF70FDF7F2FE0A20AA2314228C2194
:102AD00000904FF6FF70FDF7E9FE1420C823024670
:102AE0008C2100904FF6FF70FDF7E0FE0A20962340
:102AF0000246BE2100904FF6FF700DE0320000202C
:102B0000506C6179657220322077696E730A00001B
:102B1000447261770A000000FDF7C8FE0A20962380
:102B20000246D22100904FF6FF70FDF7BFFE3C2019
:102B3000A0230A22B42100904FF6FF70FDF7B6FEE5
:102B40003C20A0230A22C82100904FF6FF70FDF719
:102B5000ADFE3C20A0230A22DC2100904FF6FF703E
:102B6000FDF7A4FE0020A449087000BFA248007829
:102B7000C928FBDB00BF06B010BD10B586B09F4B67
:102B80000FCB02AC0FC402A90120FDF769FD4FF481
:102B90007A7000230246194600901846FDF786FE1B
:102BA00000209749086001E000F046F99448006869
:102BB000B0F5FA7FF8D94FF47A700023024619462F
:102BC00000901846FDF772FE052415E0E3B250228E
:102BD00011464FF6FF70FDF7A4FE002089490870EA
:102BE00000BF884800786528FBDBE3B2502211461D
:102BF0000020FDF796FE641E601C0028E6D1FFF75A
:102C000093F800F07BFAFFF7EAF90120FFF708FAE2
:102C100006B010BD002000BF05E07B4A411C515C9E
:102C20001154411CC8B20928F7DB78490978764A63
:102C30005172704710B57448007AF02806D0724877
:102C4000407A692803D10120FFF7EAF97AE06E485B
:102C5000407A722803D10220FFF7E2F972E06A4855
:102C6000407A7A2803D10320FFF7DAF96AE0664850
:102C7000407A6B2803D10420FFF7D2F962E0624862
:102C8000407A732803D10520FFF7CAF95AE05E485D
:102C9000407A742803D10620FFF7C2F952E05A485F
:102CA000407A6C2803D10720FFF7BAF94AE056486A
:102CB000407A5A2846D156485649096850F82100AA
:102CC00006283FDA5348016853480068FFF752F876
:102CD00051480068FFF7B3F8012817D1002049498F
:102CE000087000BF47480078C928FBDB4A490878CC
:102CF000FFF79AFB2020494908604948006840F0E6
:102D0000200047490860FFF738FF1BE0FFF78FF806
:102D1000B0B900203B49087000BF3A480078C92884
:102D2000FBDB0320FFF780FB20203C4908603C4888
:102D3000006840F020003A490860FFF71EFF01E0FC
:102D4000FFF74DF910BD10B53648006888B9364810
:102D50008068C0F38020002848D12C49087044F6D0
:102D60002060324908602F480068401C2D490860E7
:102D70003CE02C48006808281ED82A480068D8B1D2
:102D8000224800782A4908700846007840100870E8
:102D900025488068C0F3802020B10846007840F0C4
:102DA0008000087022480078184908701D480068A3
:102DB000401C1C49086019E01A480068092805D120
:102DC00018480068401C174908600FE01548006863
:102DD0000A280BD814488068C0F3802018B1FFF788
:102DE00019FFFFF727FF00200E4908604FF400602D
:102DF0001049086010BD000032000020C4410008E6
:102E000034000020310000200001002028000020B4
:102E1000E40000201C00002018000020100C0140DD
:102E2000101801402C000020001001402400002058
:102E3000300000201404014030B5ADF2EC4D3422D6
:102E4000AA490DF5976000F075FA3C2413E00025BF
:102E50000EE000200DF59761009011F82520A0B23A
:102E60004FF6FF734FF48C71FEF75CF809346D1C5C
:102E70000D2DEEDB641C962CE9DB2C229B493431B2
:102E80000DF28C4000F056FA462413E000250EE0C7
:102E900000200DF28C41009011F82520A0B24FF6D1
:102EA000FF734FF48271FEF73DF809346D1C0B2D52
:102EB000EEDB641C8C2CE9DB80228C4960310DF246
:102EC0000C4000F037FA0A2412E000250DE0002043
:102ED0000DF20C41009011F82520A0B24FF6FF73BF
:102EE000DC21FEF71FF8E41D6D1C202DEFDB641CB8
:102EF000DC2CEADB88227D49E031E1A800F01AFAF7
:102F0000012411E000250CE00020E1A9009011F857
:102F10002520A0B24FF6FF73BE21FEF703F8E41D93
:102F20006D1C222DF0DB641CDC2CEBDB7C22704959
:102F3000C2A800F0FFF9092411E000250CE00020F0
:102F4000C2A9009011F82520A0B24FF6FF73AA2164
:102F5000FDF7E8FFE41D6D1C1F2DF0DB641CDC2C6D
:102F6000EBDB782262497C31A4A800F0E3F9092464
:102F700011E000250CE00020A4A9009011F8252004
:102F8000A0B24FF6FF739621FDF7CCFFE41D6D1C38
:102F90001E2DF0DB641CDC2CEBDB1C225449F431CD
:102FA0009DA800F0C7F9092411E000250CE00020DD
:102FB0009DA9009011F82520A0B24FF6FF73822141
:102FC000FDF7B0FFE41D6D1C072DF0DB641C3B2CEE
:102FD000EBDB8C2247497AA800F0ACF9012411E020
:102FE00000250CE000207AA9009011F82520A0B25D
:102FF0004FF6FF736421FDF795FFE41D6D1C232D33
:10300000F0DB641CE62CEBDB8C223A498C3157A8B0
:1030100000F090F9012411E000250CE0002057A9F0
:10302000009011F82520A0B24FF6FF735021FDF754
:1030300079FFE41D6D1C232DF0DB641CE62CEBDB1B
:1030400068222D493DA800F075F9012411E0002502
:103050000CE000203DA9009011F82520A0B24FF609
:10306000FF733C21FDF75EFFE41D6D1C1A2DF0DBA4
:10307000641CAA2CEBDB8C221F4968311AA800F0D3
:1030800059F9012411E000250CE000201AA9009054
:1030900011F82520A0B24FF6FF732821FDF742FF5B
:1030A000E41D6D1C232DF0DB641CE62CEBDB6022A1
:1030B0001149F43102A800F03DF9012411E0002586
:1030C0000CE0002002A9009011F82520A0B24FF6D4
:1030D000FF731421FDF726FFE41D6D1C182DF0DB96
:1030E000641CA02CEBDB0DF2EC4D30BDD44100088C
:1030F0003C4300084C4400086445000838B50F25DF
:103100002AE0A8B24FF6FF721421FDF7A7FBA8B280
:103110004FF6FF723221FDF7A1FBA8B24FF6FF7206
:103120005021FDF79BFBA8B24FF6FF726E21FDF711
:1031300095FBA8B24FF6FF728C21FDF78FFBA8B26A
:103140004FF6FF72AA21FDF789FBA8B24FF6FF7276
:10315000C821FDF783FB6D1CE12DD2D9142430E08A
:10316000A1B24FF6FF720F20FDF778FBA1B24FF628
:10317000FF722D20FDF772FBA1B24FF6FF724B20BC
:10318000FDF76CFBA1B24FF6FF726920FDF766FBFD
:10319000A1B24FF6FF728720FDF760FBA1B24FF698
:1031A000FF72A520FDF75AFBA1B24FF6FF72C320B4
:1031B000FDF754FBA1B24FF6FF72E120FDF74EFB85
:1031C000641CC82CCCD900204FF6FF733122D221C9
:1031D00000901920FDF7A6FE00204FF6FF73322263
:1031E000D22100903720FDF79DFE00204FF6FF739F
:1031F0003322D22100905520FDF794FE00204FF697
:10320000FF733422D22100907320FDF78BFE002043
:103210004FF6FF733522D22100909120FDF782FEF8
:1032200000204FF6FF733622D2210090AF20FDF729
:1032300079FE00204FF6FF733722D2210090CD2077
:10324000FDF770FE38BD0000704700BFFEE700BF0D
:10325000FEE700BFFEE700BFFEE77047704770471C
:103260000A480078401C0949087009480078401C49
:103270000749087007480078401C0649087006484E
:103280000068401C044908607047000031000020BD
:1032900032000020380000203400002008B500264D
:1032A00042F21074002500BFFDF7D2F84FF416511A
:1032B0002420FDF71FF94FF416514820FDF774F94B
:1032C000FDF794F8FDF778FF0520FEF757F8FEF7B5
:1032D000A8F8FDF717FA4FF47A7000230246194652
:1032E00000901846FDF7E2FAFEF774F900BF0F48A8
:1032F0000078C928FBDB4FF47A7000230246194698
:1033000000901846FDF7D2FAFFF737FC0CE0761C68
:103310000B2D03D34FF4006005490860641E1CB9EF
:1033200044F6206400BF0025F1E7000038000020CB
:103330001404014010B5203AC0F00B80B1E81850D9
:10334000203AA0E81850B1E81850A0E81850BFF48F
:10335000F5AF5FEA027C24BFB1E81850A0E818502E
:1033600044BF18C918C0BDE810405FEA827C24BF82
:1033700051F8043B40F8043B08BF7047D20728BF10
:1033800031F8023B48BF11F8012B28BF20F8023B5F
:1033900048BF00F8012B704770477047704775466B
:1033A00000F028F8AE4605006946534620F00700B5
:1033B000854618B020B5FDF707F8BDE820404FF06E
:1033C00000064FF000074FF000084FF0000B21F00F
:1033D0000701AC46ACE8C009ACE8C009ACE8C009DC
:1033E000ACE8C0098D4670470446AFF30080204624
:1033F000FCF7E5FE004870470C0100200149182049
:10340000ABBEFEE7260002007047000090EA010F05
:1034100048BF81F0004100F12E82421A3CBF801A61
:1034200089184FEAD0524FF07F4C1CEA410FA2EBB3
:10343000D15318BF9CEA026F00F03B804FF0004C64
:103440004CEA00204CEA012121FA03FC10EB0C0CA1
:103450001ED202F1FF325FEA1C2040EBC25038BF9F
:1034600070471CF07F0F4FEA400C18BFBCF17F4F34
:1034700038BF7047C3F12003994008BF20F0010016
:10348000BCF17F4F38BF7047A0F1C04000F0DDB9FC
:103490004FEA3C00000A40EBC25028BF1CF0FF0F6F
:1034A0004FEA400CE6D018BFBCF17F4F38BF7047E1
:1034B000EAE79CEA026F05D010EA5C0F08BF00F053
:1034C0000040704710B500F07AF900BF64FBBE3EC3
:1034D0004FF47F0C1CEAD0121EBF1CEAD11392EAF3
:1034E0000C0F93EA0C0F00F0858090EA010F48BFA3
:1034F00042F4807240F4000C41F400002CF07F4153
:1035000020F07F4000B58142A2EB03020FF2081CBD
:10351000ACEB504EC0F100009EF800E04FEA4E0EBA
:1035200000FB0EFC38BF49004FEA2C1C02F5FA02E2
:103530000CFB0EF34FEACE1E4FEA112C4FEAC121CD
:103540000EEB635E42EB22420EFB0CFC4FEA1C5377
:1035500000FB03114FEA112C4FEA01310EFB0CFC6A
:103560004FEADC4C00FB0C11C14228BF09184CEBA0
:1035700003335DF804EB10EB410143EBC250B2F5AD
:103580007C0F38BF704729D512F0F00F1CBF00F137
:10359000C04000F0004070470081828384858687A8
:1035A00088898B8C8D8E8F919293959697999A9C02
:1035B0009D9FA0A2A3A5A7A8AAACAEB0B2B3B5B771
:1035C000B9BCBEC0C2C5C7C9CCCED1D4D7D9DCDF47
:1035D000E2E6E9ECF0F3F7FAFE0000004FEA400CF7
:1035E0000CF1807CBCF17E4F28BF7047B0F1C04029
:1035F00000F02BB990EA010F0CEAD11348BF42F456
:103600008072624538BF634507D213F47F0F16D02E
:1036100080EA010000F00040704710B500F0CFF8DC
:10362000097EFC3E00F005B880EA010000F0004091
:10363000704780EA010000F0004000F006B912F483
:103640007F0F04BF0248704780EA010000F0FDB818
:103650000000C07FC10DD1F19E0206DB4FEA0023BE
:1036600043F0004323FA02F07047004207D54FEAC7
:103670004001B1F1FE4F02D24FF00000704710B58B
:1036800000F09DF849922480002070476FEA2000E6
:1036900070470000B0FA80F310FA03F2C3F19D0303
:1036A0000AD0D90501EB1220530638BF704700F14C
:1036B000010008BF20F00100704700004FF47F0CAC
:1036C0001CEAD0121EBF1CEAD11392EA0C0F93EA37
:1036D0000C0F00F0478090EA010F48BF42F480725F
:1036E0004FF0004C4CEA00204CEA012102EB0302AF
:1036F000A0FB0113A2F50002002918BF43F001034B
:103700005B0028BF4FEA330342EB22425FEA132CEF
:103710004CEBC2502EBFBCEB436FB2F57C0F704731
:103720004FEA036CBCF1004F08BF20F00100B2F576
:103730007C0F38BF70470BD582F0FF0212F5803F37
:10374000C8BF704700F1C040D8BF00F000407047CC
:1037500000F5000C5FEA4C0C48BF7047B0F1C04068
:1037600000F073B890EA010F0CEAD11348BF42F49D
:103770008072624538BF634504D280EA010000F0E0
:103780000040704710B500F01AF800BF8900013EF4
:1037900000F007B800F009B85FEA410C5FEA1C6C62
:1037A00008D080EA010000F050B85FEA400C5FEA00
:1037B0001C6CF6D14FF00040A0F5800070470EF170
:1037C000020E2EF0030E5EF8044B244204D44FEA9E
:1037D0004102B2F17F4F11D84FEA4003B3F17F4F5E
:1037E0000CD80ED14FEAD07CB2F17F4F0CEB4C0CD1
:1037F0000CF1020C08BF4CEBD17C04E04FF0080C3C
:1038000001E04FEAD17C0CEB4C0324FA03F404F002
:103810000704B4F1040C06D20EEB840CBDE8104092
:103820004CF0010C6047DFE80CF0070802024FF093
:103830000040A0F5800010BD0846420018BFD2F13C
:10384000807288BF00F0004010BDFF2141EAD050D7
:10385000C005704780F0004090EA010F7FF5DDADB4
:1038600081F0004100F007B890EA010F48BF81F0F5
:1038700000413FF5D2AD421A04D882F00042A0EBDD
:10388000020011444FEAD0524FF07F4C1CEA410F26
:10389000A2EBD15318BF9CEA026F4AD04FF0004C04
:1038A0004CEA00204CEA012121FA03FCB0EB0C0C9D
:1038B0000FD412F0FE0F36D05FEA4C001DD5001277
:1038C00040EBC25038BF70471CF03F0F18BF704725
:1038D0000BE0A2F101025FEA1C2040EBC25038BFAE
:1038E00070471CF07F0F18BF7047C3F12003994049
:1038F00014BF401E20F00100704780084FEA1223D9
:1039000008BF7047B0FA80FCA2EB0C02CCF1280C87
:1039100060FA0CF093EA122F04BF00EBC25070471C
:103920004FEAC3707047130A5FEADC1008BF7047A4
:10393000F6E79CEA026F04D010EA5C0F08BF002093
:10394000704710B5FFF73BFF40DFF63E81F00040C7
:1039500070470000000000000000000000000000B0
:1039600000000000000000001FCC000C0000000060
:103970000000000008003000600008003000600017
:103980000000022003FC1E20022003FC1E20022057
:10399000000000000E1811043FFF10840C78000096
:1039A00000000F0010840F3800C0077818840078DA
:1039B000000000780F8410C411240E9800E40084E5
:1039C000000808006800700000000000000000000F
:1039D000000000000000000007E01818200440026A
:1039E0000000000040022004181807E0000000005A
:1039F00000000240024001800FF0018002400240BE
:103A000000000080008000800FF8008000800080AF
:103A100000000001000D000E00000000000000008A
:103A20000000000000800080008000800080008096
:103A300000800000000C000C0000000000000000EE
:103A40000000000000060018006001800600180059
:103A50002000000007F0080810041004080807F010
:103A600000000000080408041FFC0004000400001B
:103A7000000000000E0C10141024104411840E0CD1
:103A8000000000000C1810041104110412880C70BE
:103A90000000000000E00320042408241FFC002490
:103AA000000000001F981084110411041088107089
:103AB0000000000007F00888110411041888007045
:103AC000000000001C00100010FC13001C0010007F
:103AD000000000000E3811441084108411440E3888
:103AE000000000000700088C10441044088807F00C
:103AF0000000000000000000030C030C00000000A8
:103B000000000000000000010106000000000000AD
:103B1000000000000080014002200410080810048A
:103B200000000220022002200220022002200220A7
:103B3000000000001004080804100220014000806A
:103B4000000000000E001200100C106C10800F001E
:103B5000000003E00C1813E4142417C4082807D04D
:103B600000000004003C03C41C40074000E4001CAB
:103B7000000410041FFC1104110411040E880070CD
:103B8000000003E00C1810041004100410081C10AE
:103B9000000010041FFC100410041004080807F0B3
:103BA000000010041FFC1104110417C410040818AD
:103BB000000010041FFC1104110017C010000800C1
:103BC000000003E00C181004100410441C7800409E
:103BD000000010041FFC10840080008010841FFC73
:103BE00010040000100410041FFC10041004000056
:103BF000000000030001100110011FFE1000100062
:103C0000000010041FFC110403801464181C10042D
:103C1000000010041FFC1004000400040004000C49
:103C2000000010041FFC1F0000FC1F001FFC1004FC
:103C3000000010041FFC0C04030000E010181FFC1F
:103C4000100007F00808100410041004080807F01A
:103C5000000010041FFC10841080108010800F00E2
:103C6000000007F0081810241024101C080A07F29E
:103C7000000010041FFC1104110011C011300E0CC3
:103C8000000400000E1C11041084108410441C3821
:103C900000001800100010041FFC10041000180091
:103CA000000010001FF810040004000410041FF8A6
:103CB000100010001E0011E0001C007013801C009A
:103CC00010001FC0103C00E01F0000E0103C1FC0AF
:103CD00000001004180C163401C001C01634180C72
:103CE000100410001C00130400FC13041C0010003E
:103CF00000000804101C1064108413041C04101825
:103D000000000000000000007FFE40024002400270
:103D10000000000030000C0003800060001C000365
:103D2000000000004002400240027FFE0000000050
:103D30000000000000002000400040004000200083
:103D4000000000010001000100010001000100016C
:103D500000010000400040002000000000000000C2
:103D6000000000000098012401440144014400FCCB
:103D7000000410001FFC008801040104008800708A
:103D800000000000007000880104010401040088A4
:103D900000000000007000880104010411081FFCED
:103DA0000004000000F8014401440144014400C83B
:103DB00000000000010401040FFC110411041100B3
:103DC0001800000000D601290129012901C90106B6
:103DD000000010041FFC008401000100010400FC2D
:103DE000000400000104190419FC00040004000090
:103DF00000000000000300010101190119FE00008C
:103E0000000010041FFC0024004001B4010C010458
:103E100000000000100410041FFC00040004000057
:103E20000000010401FC0104010001FC0104010087
:103E300000FC010401FC008401000100010400FCFD
:103E40000004000000F8010401040104010400F86A
:103E50000000010101FF00850104010400880070D9
:103E6000000000000070008801040104010501FF4A
:103E700000010104010401FC00840104010001802F
:103E80000000000000CC0124012401240124019839
:103E9000000000000100010007F801040104000017
:103EA0000000010001F8000400040004010801FC06
:103EB0000004010001800170000C0010016001800D
:103EC000010001F0010C003001C00030010C01F0D4
:103ED000010000000104018C00740170018C0104D8
:103EE0000000010101810171000E001801600180D4
:103EF000010000000184010C013401440184010C23
:103F00000000000000000000000001003EFC400234
:103F100040020000000000000000FFFF0000000061
:103F200000000000400240023EFC010000000000D2
:103F30000000000060008000800040004000200081
:103F400020000010001000100FD00A900A900A9074
:103F5000FAFF4A904A904A904FD04010401000100B
:103F600000000080010006001FFFE0000001089132
:103F700019222A62C9D4084808542A6219010C81FE
:103F800000001B222D22C92413A400283FB064A0E6
:103F9000A4FF24A03FB000281B242D24C92213A273
:103FA0000000082008C00B00FFFF09000890012452
:103FB0007DC955525564554A55717D42017C0100B9
:103FC00000000002001C7F804900493C4902490270
:103FD0007F42493249024902490E7FA00010000C7D
:103FE00000002108210C3FF82110211000002011B1
:103FF000FFF22494249024902494FFF220110010C6
:1040000000000000000000000000000000000000B0
:1040100000000000000000000000000000000000A0
:104020000000000000000000000000000000000090
:104030000000000000000000000000000000000080
:104040000000000000000000000000000000000070
:104050000000000000000000000000000000000060
:104060000000000000000000000000000000000050
:104070000000000000000000000000000000000040
:104080000000020003000382039C03FC07F83FF8D2
:10409000FFF03FF807F803FC039C038203000200D3
:1040A000000000000000200038003E003F803FC0BC
:1040B0003FF03FE03FC03F003C00380020000000E0
:1040C00000000000000000000000000000000000F0
:1040D00000000000000000000000000000000000E0
:1040E00000000000000000000000000000000000D0
:1040F00000000000000000000000000000000000C0
:1041000000000000000000000000000000000000AF
:10411000000000000000000000000000000000009F
:10412000000000000000000000000000000000008F
:10413000000000000000000000000000000000007F
:10414000000000000000000000000000000000006F
:10415000000000000000000000000000000000005F
:10416000000000000000000000000000000000004F
:10417000000000000000000000000000000000003F
:10418000000000000000000000000000000000002F
:10419000000000000000000000000000000000001F
:1041A000000000000000000000000000000000000F
:1041B00000000000000000000000000000000000FF
:1041C0000000000047616D6520537461727465647E
:1041D0000A000000430000006F0000006E000000B5
:1041E0006E00000065000000630000007400000025
:1041F00020000000460000006F0000007500000075
:104200007200000000000000470000006100000094
:104210006D0000006500000020000000520000005A
:10422000750000006C0000006500000073000000D5
:1042300000000000500000006C0000006100000061
:1042400079000000650000007200000031000000ED
:104250002000000069000000730000002000000042
:104260007200000065000000640000002C000000E7
:1042700020000000500000006C0000006100000001
:1042800079000000650000007200000032000000AC
:104290002000000069000000730000002000000002
:1042A000670000007200000065000000650000006B
:1042B0006E0000002D0000004500000061000000BD
:1042C0006300000068000000200000007000000093
:1042D0006C00000061000000790000006500000033
:1042E0007200000020000000740000006100000067
:1042F0006B0000006500000020000000740000005A
:1043000075000000720000006E00000073000000E5
:1043100020000000740000006F000000200000007A
:10432000690000006E0000007300000065000000DE
:104330007200000074000000000000007400000023
:1043400068000000650000006900000072000000C5
:1043500020000000700000006900000065000000FF
:104360006300000065000000200000006200000003
:1043700079000000200000006300000068000000D9
:104380006F0000006F000000730000006900000073
:104390006E000000670000002000000063000000C5
:1043A0006F0000006C000000750000006D00000050
:1043B0006E000000000000006E00000075000000AC
:1043C0006D00000062000000650000007200000047
:1043D00020000000610000006E000000640000008A
:1043E00020000000630000006C0000006900000075
:1043F000630000006B00000020000000450000008A
:104400006E000000740000006500000072000000F3
:10441000200000006F0000006E000000200000007F
:10442000740000006800000065000000000000004B
:104430004B000000650000007900000070000000E3
:104440006100000064000000000000005000000057
:104450006C000000610000007900000065000000B1
:1044600072000000200000007700000068000000DB
:104470006F000000200000006600000069000000DE
:1044800072000000730000007400000020000000B3
:10449000660000006F000000720000006D00000068
:1044A0002000000061000000200000006800000003
:1044B0006F00000072000000690000007A00000038
:1044C0006F0000006E00000074000000610000003A
:1044D0006C000000000000002C00000076000000CE
:1044E0006500000072000000740000006900000018
:1044F00063000000610000006C000000200000006C
:104500006F00000072000000200000006400000046
:104510006900000061000000670000006F000000FB
:104520006E000000610000006C0000002000000030
:104530006C000000690000006E00000065000000D3
:10454000200000006F000000660000002000000056
:10455000660000006F00000075000000720000009F
:10456000000000007000000069000000650000000D
:1045700063000000650000007300000020000000E0
:1045800077000000690000006C0000006C00000073
:104590002000000077000000690000006E000000AD
:1045A00020000000740000006800000065000000AA
:1045B0002000000067000000610000006D000000A6
:1045C000650000002E000000000000004F00000009
:1045D0007400000068000000650000007200000028
:1045E0007700000069000000730000006500000013
:1045F0002C0000006E0000006F0000001A00000098
:104600006F0000006E000000650000001A0000004E
:1046100077000000690000006C0000006C000000E2
:104620001A00000077000000690000006E00000022
:104630002000000074000000680000006500000019
:104640002000000067000000610000006D00000015
:104650006500000000000000610000006E00000026
:1046600064000000200000007400000068000000EA
:10467000650000001A0000007200000065000000E4
:1046800073000000750000006C0000007400000062
:104690001A00000069000000730000001A0000000A
:1046A000640000007200000061000000770000005C
:1046B0002E00000000000000D84600080000002086
:1046C0003C0000006C010008144700083C0000207A
:1046D000340700008801000800A24A04000000001E
:1046E00000000000010203040607080900000000A2
:1046F0000000000000000000000000001027000083
:1047000000000000000000000000000000000000A9
:0447100000000000A5
:04000005080003AD3F
:00000001FF
